:100000006F006061000000004A0100004C01000028
:1000100000000000000000000000000000000000E0
:1000200000000000000000000000000000000000D0
:10003000A402000000000000140600000000000000
:100040001406000014060000140600001406000048
:100050001406000014060000140600001406000038
:100060001406000014060000140600001406000028
:100070001406000014060000140600001406000018
:100080001406000014060000140600001406000008
:100090001406000014060000140600000000000012
:1000A000511126C022C206C4828282441244A24058
:1000B000310182802A86014593F6150091C232955E
:1000C00085810606F5F9828000000000634E050276
:1000D00063C305042E86AA857D5515C285466378BF
:1000E000B6006356C00006068606E36CB6FE014500
:1000F00063E4C500918D558D85820582F5FA828075
:100100008682C93F2E8582823305A04063D70500D1
:10011000B305B040C1B7B305B0408682653F330533
:10012000A0408282868263C70500634905005D376F
:100130002E858282B305B040E35B05FE3305A04007
:10014000513F3305B0408282000001A0B707EFBEE7
:1001500037E700E0938707083CC701A018419C419E
:100160004843DC431D8D8280EFF29FF371112A8496
:1001700021452EC0EF003063824500C14CC1110102
:100180002DB75C35542563FBD702EFF27FF10445B0
:100190002E872A848A07B2853A85BE94F13788C0B3
:1001A0004C340844B70600009386C61511468505F1
:1001B000EF0010775C3485075CB4C5BD8280EFF238
:1001C0003FEE04452A84FD550145793F88C0A306CA
:1001D0000400E1BDEFF2DFEC7111B7F400E02AC0DA
:1001E00023A004004145EF00105C82472A84A30647
:1001F00005005CA513952700EF00F05A08C422857E
:100200007D3F0567B7E700E023A0E71023A00400C7
:10021000B707002003A507018965938505F45D3DB7
:100220007D1588C823A40400014781475CC018C01D
:10023000BD479CC085477CA422851101BDB55835BA
:10024000814793F6F70F63E8E600854763FEE70012
:100250007D1758B582801445850713962700B296FE
:10026000904223AEC6FEF1BFEFF29FE3893F35BD5A
:100270001C459C4389C7C84313351500828001453E
:1002800082805035814713F7F70F6363C700828080
:10029000184593962700850736971443D8427D1753
:1002A000D8C2D5B7611126C022C203A401811C4067
:1002B000544013871700B337F700B6975CC07C240F
:1002C00018C091CF2285938401815D3719C51C44E4
:1002D0009C439C43829788409D3788405D371244F9
:1002E000B7F700E023A20700824421017300203009
:1002F000EFF21FDB89646111AA860144814737064A
:100300000020938404F48325060136853EC236C05E
:100310005533A685C133924791E7824637060020C0
:100320006364A400210151B3010013071400B33723
:1003300087003A84C9BFEFF2BFD603A70181896461
:1003400061112A86230707008146014437030020F4
:10035000938404F483250301328536C232C0993B6D
:10036000A6858D3B1387018119E492460246370327
:10037000002063E7A6001C430547F8A7210135B319
:1003800001009387160033B4D700BE86E1B7EFF2C1
:100390003FD113056006EF00903F01BBEFF25FD045
:1003A0001165111185451305050202C002C202C480
:1003B00002C602C802CA02CC9921930700027C80BF
:1003C000371401408D473EC28A85E147130504403A
:1003D0003EC4DD2C930700047C808A859147130579
:1003E00004403EC4D524F167374401409387072079
:1003F0003EC66C00B7070C00130504803ECA02C855
:10040000231C01002129854513050480F129710170
:1004100069B9EFF2FFC805453526492A716513050C
:100420000520FD21B707002083A50701371500002F
:100430001305C542EF0090335924AA8537150000F3
:100440001305C543EF009032913F214561330964A4
:10045000B7050000130604719385E53823A8A18031
:1004600013040471393B2285F9351305803E493563
:1004700013054007EF00B031FDB7EFF27FC237142C
:1004800002401C403707FFF8611193E717001CC0BA
:100490005C404145F98F5CC01C403707F7FE7D1773
:1004A000F98F1CC01C403707FCFF7D17F98F1CC05B
:1004B0005C4041777D17F98F5CC0B7079F001CC473
:1004C00069241C4C3706020093E707021CCCB717BF
:1004D000014003A70740938607401377F7F023A056
:1004E000E74003A707401367070823A0E7408947B1
:1004F0009CCA02C002C21C4C37070140A16693E7A8
:1005000017001CCC5C43D58F5CC31C404167B716F9
:100510000240D98F1CC009679C42F18F3EC28247BE
:1005200085073EC0924781E78247E397E7FEB7170A
:1005300002409C431397E7006358070685473EC275
:10054000124785476310F706B72702409843C176E4
:10055000FD16719B98C398431367170098C3B7178C
:100560000240D843D8C3D843758FD8C3D843C16697
:10057000558FD8C39843B7060001558F98C3984349
:1005800093166700E3DD06FED843B7160240719B61
:10059000D8C3D84313672700D8C32147DC42B18BA7
:1005A000E39EE7FE210111B602C259BFEFF25FAF31
:1005B000371702405C43370400209146B18B130487
:1005C00004016385D700A1466380D704B7376E0165
:1005D000938707601CC0B7160240DC420840918335
:1005E00013F7F700B707002093870700BA978C230B
:1005F000DC4293F5F50F93F707083357B50099E3FD
:10060000D13C2A8718C055B45C43B777DC02938786
:1006100007C0C9B701A0970100209381A1281381C9
:1006200001F61305000A970500209385A59D17067E
:1006300000201306269D63FAC5008322050023A02F
:10064000550011059105E3EAC5FE171500001305D5
:10065000A5E0970500209385E59A1386818063FACB
:10066000C5008322050023A0550011059105E3EA8A
:10067000C5FE138581809385C1816377B5002320F2
:1006800005001105E36DB5FEB722000093820288D4
:10069000739002308D4273904280970200009382E3
:1006A000629693E2320073905230EFF01FDD9702B2
:1006B0000000938242D67390123473002030B7F753
:1006C000FF1F03A5477C8280944593F7060193F2B0
:1006D000F60081C7DC41B3E2F20083D3050093F753
:1006E000F30FA5C303230500611122C226C0814771
:1006F000130480029304800405473316F70033F790
:10070000C3006312E602939527003D473317B700F5
:100710001347F7FF33736700B395B20033E3650007
:10072000639D860050C985072147E397E7FC124483
:1007300023206500824421018280E39696FE10C941
:10074000DDB7828023AAA1808280371702401C4334
:100750000E0593F777F05D8D08C38280EFF25F940A
:10076000371702405C4391462A84B18B6385D700DA
:10077000A1466380D708B7376E01938707601CC016
:10078000B7160240DC42918313F7F700B707002049
:1007900093878702BA978C23DC42184093F5F50FB4
:1007A00093F707083355B70081E73A85EFF09F923A
:1007B00048C008C448C4B7170240DC438D46AD8327
:1007C000FD8B13D737008A07F18BD98F13F63701CA
:1007D00013F7370063F4C600138747FFB7070020FD
:1007E00093874701BA978C23EFF0DF8E08C86FF02C
:1007F000DF8B5C43B777DC02938707C049B799C5A5
:10080000371702401C4F5D8D08CF8280B71702401A
:10081000984F1345F5FF798D88CF8280EFF25F887E
:100820001629F577FD17F58FF621DA252111D58FD9
:100830001EA95625FD779387379FF58FD6212A84E9
:100840002EC0D58F9625D58FB625D58F5EA55E296E
:10085000C207C18393F7F7CF5D8F5AA94800FD3DCA
:10086000B74701409387078082456312F406C24769
:100870005A24139517003E9542070E0541873E9571
:100880008C41635807048605EFF0DF84930540062A
:100890002AC0EFF03F848247931445009305400639
:1008A0003E85EFF0FF855E24C207C18763D507024E
:1008B0000E059305400613052503EFF0BF811D8942
:1008C000C98CC204C18006A461016FF00FFEB2475B
:1008D00045B78A0555BF1205930540061305250344
:1008E000EFF04FFF3D89E9BF91C55E250967D98FBC
:1008F0005EA582805A25F977FD17F98FD5BF93F54C
:10090000F51F4EA182800A216D8D3335A0008280B3
:10091000EFF20FF92A8411651111854513050502BF
:10092000F93D930700027C80371501408D473EC298
:100930008A85E147130505403EC4793322C6374412
:100940000140B70708006C00130504803ECA02C8C6
:10095000231C0100E13585451305048071377101C1
:100960006FF0AFF4EFF2CFF37111AE840144635D29
:10097000C402B7470140138707803A8593050004F6
:1009800032C05137B747014013870780024675D5FB
:100990003387840083050700138507800504C2059B
:1009A000C181B13F0246E1B7328511016FF0EFEF2F
:1009B00037070020130787031C439386C1813E95A8
:1009C0006369D500938601E663E5A60008C33E850A
:1009D0008280FD57EDBF411106C62EC00DCD1841D6
:1009E000AA8705C358417D5511CB8546631BD700A7
:1009F00098472300070023A207000545B2404101A4
:100A000082809847824614A39847050798C7D84321
:100A10007D17D8C3DDB705468A85A937F9BF01110F
:100A200022CC2EC206CE26CA2A8481479305000214
:100A3000634506029245BE95838505008DE563D822
:100A4000C70263D4E702198E1305000293F526004E
:100A50002AC089C501E7930500032EC0858A814419
:100A600095EAB2840DA08507F1B71D8EF1BF01464E
:100A7000E1BF824522853AC832C63EC4A93FA2479B
:100A800032464247FD14E34690FEB28463530600AB
:100A90008144058E63C7E702A68792463387974055
:100AA00036978305070095EDB28463449004635341
:100AB00006000146F2406244D2443305F600056167
:100AC00082801D8FBA8793050003228532C83EC6F7
:100AD0003AC41137B24722474246FD17EDF7BA94A0
:100AE00065BF228532C63EC4FD35A2473246850722
:100AF0006DB78245228532C43EC2F13DFD142246C7
:100B0000924765B7397106DE22DC26DA3EC23283AF
:100B10003A8689ED92469307000301476C08FC86EC
:100B2000FD3DF2506254D25421618280AA84368401
:100B3000AE8791CA294701446317E30063D50500D6
:100B4000B307B04005448646A309010213073103E9
:100B5000938666FC36C49A853E8532CA3AC81AC660
:100B60003EC0EFF0EFD9A546824732434247524696
:100B700063D4A600A2463695130505039306F7FF36
:100B8000A30FA7FE9A853E8532CC3ACA1AC83EC644
:100B900036C0EFF02FD4B24742435247624663F962
:100BA000670401CC29CA9247898BB1C79305D0024B
:100BB000268532C40D3522467D169247918B95C30A
:100BC00006479307100632C4930500032685631E6B
:100BD000F7021135930580072685F53B2246090467
:100BE00079161647924682452685153D229515BFF2
:100BF000AA8702478DB782469307D0020144A38F8C
:100C0000F6FE9307E7FF3EC04DBFF1339305800525
:100C1000E1B70145828001458280130181FD22D028
:100C200026CE06D22AC4AE82328402C6814483858F
:100C3000020089EDA24781C781453E85693B9250FC
:100C400002542685F24413018102828093075002E8
:100C50006388F500224516C88504B53BC24239A811
:100C60008387120013871200639CB7002245930507
:100C700050023AC88D3342478504BA82850245BF87
:100C8000D5DB9306B0026389D70463C8F6009306E8
:100C900030026386D704814705A09306D002638A99
:100CA000D70093060003E398D7FE138722008947F5
:100CB00021A0138722008547830607001306B00290
:100CC0006383C6046341D60213063002638BC602F7
:100CD000BA820145A54681A0138722006DBF138704
:100CE00022009147D1BF1306D0026389C6001306C4
:100CF0000003E39FC6FC93E7270031A00507854763
:100D0000C1BF93E747000507E1B7131625003295E9
:100D100006053A95850203860200130706FD9375C2
:100D2000F70FE3F4B6FE1307E0029946631EE600F0
:100D300085028146A54503860200130606FD13774A
:100D4000F60F63F5E50236C6038702001306A00618
:100D5000630DC70A6343E6021306C0046307C70AAC
:100D600013068006630CC70881452DA8139726003B
:100D7000BA968606B29685027DBF130640076306C3
:100D8000C7081306A0076302C7081306C0068145FB
:100D9000631AC700038612008D456314E6008502BE
:100DA000914585020386020093030006130710068F
:100DB00063C4C300130710049303700663C4C3061F
:100DC00093035006635376189303700463C1C304FE
:100DD00093055004635BB61613073004E310E6EA8C
:100DE00018409303440016CA230CE1001EC8A30C4C
:100DF00001000147BE862A862C0849A803861200F6
:100E00008145E311E6FA890271BF8502B1BF9306FD
:100E10003006E307D6FC63CEC6069306800563035F
:100E2000D602A9BD930630076304D60463CBC6027D
:100E30009306F0066302D60E9306000793E7470079
:100E4000E31ED6E29146639FD50A930384000C40CB
:100E5000504016CA3AC23EC01EC8AA870147C146C2
:100E6000B9A0930650076308D6069306800745BFCE
:100E70001840B7160000930344009385C64411C37D
:100E8000BA85324716CA1EC8BE862A862245413E0A
:100E90000DA091466394D502930384000C4050400A
:100EA00016CA3AC23EC01EC8AA870547A9462245AF
:100EB0008D33C243AA941E84D242C9B3B2460C40B9
:100EC00016C836C23AC011042A87854629462245EB
:100ED0001539AA9461B39146639DD50093038400AC
:100EE0000C40504016CA3AC23EC01EC8AA870147ED
:100EF00075BFB2460C4016C836C23AC011042A87E4
:100F00008146E9B7B24616C80C40414636C23AC0DF
:100F100011042A87814665BF9146639ED5009303DD
:100F200084000C40504016CA3AC23EC01EC8AA8770
:100F30000147A146ADBFB2460C4016C836C23AC002
:100F400011042A878146214659B70C4013068400B4
:100F500040403AC22A87224532C83EC02286B68720
:100F6000A94616CA4D39AA944244B9B71301C1FD26
:100F70002EC832CAAA851008014506C636CC3ACE1C
:100F80003ED032C05939B240130141028280411132
:100F90002AC08A850546014506C6EFF0BF9CB240CF
:100FA00005454101828097F7FF1F9387A70FAA8508
:100FB000884309A0411126C293843500F19806C6E2
:100FC00022C4A104B14763F5F404B14463E4B4045A
:100FD0002AC099291387818014438247368439E0D7
:100FE0001387C180184301EB3E8581453EC001292E
:100FF00023A6A18082473E85A6853EC009217D5754
:1010000082476314E506314798C33E85392929A0F4
:10101000E3DE04FAB1471CC10145B24022449244C8
:10102000410182801840058F634E07022D4663768A
:10103000E60018C03A9404C031A05840639286027A
:1010400023A4E1803E85D5261305B4001307440090
:101050006199B307E540F1D33E94098F18C075BF7D
:10106000D8C2CDB7A28640409DBF13043500719809
:10107000E30385FCB305A4403E853EC049267D5769
:101080008247E31AE5FA41B70947AA873303C50047
:10109000638FE600098298411C4111059105232EBA
:1010A000E5FE23AEF5FE7D16E347C0FE8280942167
:1010B000982385078505A38FD7FEA38FE5FE330709
:1010C000F340E346E0FE8280311122C626C406C802
:1010D000AE84328436C22AC082969246A285635577
:1010E000050226858296924663590500268422854C
:1010F000C2403244A244510182800245A2858296B8
:10110000E34705FE0244E5B7268536C28296E34FE3
:10111000A0FC02459246A2858296E35A05FCDDB703
:101120001301C1FC9307C6FF22D626D406D82AC0D5
:10113000AE84328436C43ED0824709473AC2C18F5A
:101140008D8B89E78257B337F0003EC2994763E63B
:1011500097068247A2852685A2973EC6EFE09FF5B7
:101160008247AA973EC8C2473247636EF700C25013
:101170003254A25413014103828092462286A685EE
:101180003E8519371DA0B24715A0B3848740BE85A0
:101190003ECAA24726858297D247635CA0001247C9
:1011A00069FF9040944390C394C0A6870247E36EC2
:1011B000F7FCB247A2973EC67DB7A28513D51400AF
:1011C000EFE05FEF8247A2853383A7001385F4FF2A
:1011D0001AC6EFE03FEE82472ACC1D47AA9732435A
:1011E0006385E40613078002637C970AA28513D502
:1011F00034001AC83EC6EFE0FFEB8247A246AA843D
:10120000B385A7003386A5003E857D3D4243A246B7
:101210002ACA330693009A85330593407535B24741
:101220002AC8A246139514003385A7403E86B3050D
:101230009500593DB247424352472A86A2469A85B5
:101240003A853EC65135B2472A83124729EF0247F5
:10125000832603000246184314C22320E3000247FA
:101260003EC8814622973ACABA843AC663E29710CA
:101270003ECE8245A247268536D28297F2479256C5
:101280006342A00601ED12471DE732479040144328
:1012900010C394C0324722973AC68546A294F9B744
:1012A0003E86024761BF9246024522869A853EC627
:1012B000E13BB2476DB7924632452286A6853ECEC7
:1012C000E133F247C1BF01ED124731E34247944396
:1012D000104390C314C3C2478546818F3EC8F2476E
:1012E00063E897083E853ECE8245A24736D2829774
:1012F000F2479256338787403ACEE35605FC1247B1
:1013000009CF92462286BE852685BD3B19A8924606
:10131000C24522863E858D3B7DBF9043944090C060
:1013200094C3F2479DBF9246BE85228626853EC65F
:10133000A13BB2470DA0B38784403E853EC6A2477D
:10134000A6858297B247635CA000124769FF944369
:10135000984094C098C3BE848247E3EE97FCD2477E
:10136000A2973ECAD2476247E3F3E7E0D244EDB723
:1013700062470246229732973ACCEDD632478246F0
:101380003383E4403306D7406353C3001A8611CA3F
:1013900092460245B385C4403ECA1AC6F531D247CB
:1013A00032434247C246B307F74062473306D7404D
:1013B000018E63F3C7003E8619CA3EC8E2479246D3
:1013C0002685B385C7401AC6C131C2473243637D03
:1013D0006400A2851A853EC2EFE0DFCFAA85A2464F
:1013E00002452286353B9247E373F4D86247A285D3
:1013F0003E851D8F3AC0EFE0FFCDAA8435BB511169
:1014000022C22A842E8523AC018006C4EFF04FDA75
:10141000FD576317F500938781819C4391C31CC0DE
:10142000A240124431018280828082805379737499
:10143000656D436C6B3A25640D0A00004368697062
:1014400049443A253038780D0A000000286E756C42
:041450006C29000003
:101454000102030405060708010203040506070840
:10146400006CDC020204060804080C1008101820A2
:101474001020304020406080010203040506070864
:101484000102030405060708BC0000200000000058
:101494000000000000000000000000000000000048
:1014A4000000000000000000000000000000000038
:1014B4000000000000000000000000000000000028
:1014C4000000000000000000000000000000000018
:1014D4000000000000000000000000000000000008
:1014E40000000000000000000000000000000000F8
:0814F4003C0000200000000094
:00000001FF
